:020000040800F2
:1000000000000220D14800086D0800086F080008B1
:100010007108000873080008750800080000000057
:100020000000000000000000000000007708000849
:1000300079080008000000007B0800087D0800081F
:1000400021490008214900082149000821490008E8
:1000500021490008214900082149000821490008D8
:1000600021490008214900082149000821490008C8
:1000700021490008214900082149000821490008B8
:100080008508000821490008214900082149000885
:100090002149000821490008214900082149000898
:1000A0002149000821490008214900082149000888
:1000B0002149000821490008214900082149000878
:1000C0002149000821490008214900082149000868
:1000D0002149000821490008214900082149000858
:1000E0002149000821490008214900082149000848
:1000F0002149000821490008214900082149000838
:100100002149000821490008214900082149000827
:100110002149000821490008214900082149000817
:100120002149000821490008214900082149000807
:1001300021490008214900082149000821490008F7
:1001400021490008214900082149000895080008B4
:1001500021490008214900082149000821490008D7
:1001600021490008214900082149000821490008C7
:100170002149000821490008214900080000000029
:08018000214900082149000893
:1001880010B5054C237833B9044B13B10448AFF3C9
:1001980000800123237010BD9001002000000000A2
:1001A800404B000808B5034B1BB103490348AFF3A4
:1001B800008008BD0000000094010020404B0008AA
:1001C80053B94AB9002908BF00281CBF4FF0FF31B6
:1001D8004FF0FF3000F074B9ADF1080C6DE904CEB2
:1001E80000F006F8DDF804E0DDE9022304B070470A
:1001F8002DE9F047089D04468E46002B4DD18A42D2
:10020800944669D9B2FA82F252B101FA02F3C2F104
:10021800200120FA01F10CFA02FC41EA030E944095
:100228004FEA1C48210CBEFBF8F61FFA8CF708FBB6
:1002380016E341EA034306FB07F199420AD91CEB8E
:10024800030306F1FF3080F01F81994240F21C81C0
:10025800023E63445B1AA4B2B3FBF8F008FB103308
:1002680044EA034400FB07F7A7420AD91CEB04043D
:1002780000F1FF3380F00A81A74240F2078164440D
:10028800023840EA0640E41B00261DB1D440002392
:10029800C5E900433146BDE8F0878B4209D9002DF6
:1002A80000F0EF800026C5E9000130463146BDE880
:1002B800F087B3FA83F6002E4AD18B4202D38242EA
:1002C80000F2F980841A61EB030301209E46002D99
:1002D800E0D0C5E9004EDDE702B9FFDEB2FA82F2EE
:1002E800002A40F09280A1EB0C014FEA1C471FFA4C
:1002F8008CFE0126200CB1FBF7F307FB131140EA33
:1003080001410EFB03F0884208D91CEB010103F1FF
:10031800FF3802D2884200F2CB804346091AA4B2C1
:10032800B1FBF7F007FB101144EA01440EFB00FE95
:10033800A64508D91CEB040400F1FF3102D2A645FA
:1003480000F2BB800846A4EB0E0440EA03409CE799
:10035800C6F12007B34022FA07FC4CEA030C20FA46
:1003680007F401FA06F31C43F9404FEA1C4900FA66
:1003780006F3B1FBF9F8200C1FFA8CFE09FB1811E3
:1003880040EA014108FB0EF0884202FA06F20BD956
:100398001CEB010108F1FF3A80F08880884240F2A6
:1003A8008580A8F102086144091AA4B2B1FBF9F0EA
:1003B80009FB101144EA014100FB0EFE8E4508D9E5
:1003C8001CEB010100F1FF346CD28E456AD902386A
:1003D800614440EA0840A0FB0294A1EB0E01A1424F
:1003E800C846A64656D353D05DB1B3EB080261EBBD
:1003F8000E0101FA07F722FA06F3F1401F43C5E997
:10040800007100263146BDE8F087C2F12003D840CC
:100418000CFA02FC21FA03F3914001434FEA1C470E
:100428001FFA8CFEB3FBF7F007FB10360B0C43EA00
:10043800064300FB0EF69E4204FA02F408D91CEBB0
:10044800030300F1FF382FD29E422DD902386344AE
:100458009B1B89B2B3FBF7F607FB163341EA03414E
:1004680006FB0EF38B4208D91CEB010106F1FF389D
:1004780016D28B4214D9023E6144C91A46EA004694
:1004880038E72E46284605E70646E3E61846F8E626
:100498004B45A9D2B9EB020864EB0C0E0138A3E76F
:1004A8004646EAE7204694E74046D1E7D0467BE750
:1004B800023B614432E7304609E76444023842E7C8
:1004C800704700BF2DE9F0478CB0002407940894CA
:1004D80009940A940B9401945B4B1A6B42F0100236
:1004E8001A631A6B02F010020192019A02941A6BB5
:1004F80042F004021A631A6B02F004020292029A92
:1005080003941A6B42F080021A631A6B02F080029D
:100518000392039A04941A6B42F001021A631A6B4D
:1005280002F001020492049A05941A6B42F0020246
:100538001A631A6B02F002020592059A06941A6B66
:1005480042F008021A631B6B03F008030693069B2C
:100558003E4F22460821384602F0B4FCDFF8F8A0E6
:1005680001221146504602F0ADFCDFF8F080224629
:100578004FF21001404602F0A5FC08260796012517
:10058800089509940A9407A9384602F0B3FB079521
:10059800089509940A9407A9504602F0ABFB079600
:1005A8000226089609940A944FF00509CDF82C9074
:1005B80007A9504602F09EFB0795254B089309941E
:1005C800AAF5006A07A9504602F094FBE0230793B6
:1005D800089609940A94CDF82C9007A9504602F081
:1005E80089FB04230793089409940AF5806A07A9EC
:1005F800504602F07FFB4FF48063079308960994F6
:100608000A94CDF82C9007A9504602F073FB4FF2DC
:1006180010030793089509940A9407A9404602F025
:1006280069FB202307930894099407A9404602F020
:1006380061FB0796074B0893099407A9384602F00F
:1006480059FB0CB0BDE8F0870038024000100240AA
:10065800000011100000121000080240000C0240B7
:1006680000B583B000210191094B1A6B42F40012C6
:100678001A631B6B03F400130193019B0A461020B5
:1006880002F000FE102002F035FE03B05DF804FB16
:100698000038024072B6FEE708B50A480A4B036004
:1006A8000A4B436000238360C3604FF480420261B9
:1006B80043618361C361036202F0A4FE00B908BD0F
:1006C800FFF7E8FF0C02002000540040A08601005C
:1006D80008B50B480B4B03604FF4007343600023CD
:1006E8008360C36003614BF6803242618361C361FA
:1006F800036202F065FF00B908BDFFF7CBFF00BF3A
:1007080060020020003C004000B599B03022002172
:100718000DEB020004F036F90023079308930993C0
:100728000A930B9303930493059306930193274A23
:10073800116C41F080511164126C02F080520192E8
:10074800019A0293224B1A6842F480421A601B688D
:1007580003F480430293029B01230C934FF48033EC
:100768000D93022312934FF48002139208221492DD
:100778004FF4A87215921693072317930CA801F04B
:10078800AFFEE8B90F2307930223089300230993C8
:100798004FF4A0530A934FF480530B93052107A8F5
:1007A80002F0FEF870B901230393C02304930223D7
:1007B800059303A802F0BAF930B919B05DF804FB43
:1007C800FFF768FFFFF766FFFFF764FF0038024096
:1007D8000070004008B502F0D5FDFFF795FFFFF760
:1007E80071FEFFF73DFFFFF757FFFFF771FF00F0BE
:1007F8001BF91B4C4FF48051204602F069FB642022
:1008080002F0ECFD4FF48051204602F061FB4FF4FA
:100818000051204602F05CFB642002F0DFFD4FF43B
:100828000051204602F054FB4FF48041204602F06C
:100838004FFB642002F0D2FD4FF48041204602F0C5
:1008480047FB4FF40041204602F042FB642002F0CF
:10085800C5FD4FF40041204602F03AFBC9E700BF4E
:10086800000C0240FEE7FEE7FEE7FEE7FEE7704702
:100878007047704708B502F09FFD08BD08B50248EB
:1008880002F000FC08BD00BFAC01002008B502481A
:1008980000F0B8FC08BD00BF7807002000B583B0A1
:1008A800002100910C4B5A6C42F480425A645A6CF5
:1008B80002F480420092009A01911A6C42F0805230
:1008C8001A641B6C03F080530193019B072002F00C
:1008D800C7FC03B05DF804FB0038024030B589B0AE
:1008E8000023039304930593069307930268144B1C
:1008F8009A4201D009B030BD00250195114C236BF7
:1009080043F002032363236B03F002030193019B6B
:100918004FF41073039312230493012305930423C4
:10092800079303A9084802F0E5F90295236C43F4FC
:1009380000132364236C03F400130293029BD9E78A
:10094800005400400038024000040240F0B589B06D
:1009580000230393049305930693079302682D4B92
:100968009A4201D009B0F0BD04460025009503F570
:10097800FE331A6C42F400421A641A6C02F4004204
:100988000092009A01951A6B42F001021A631A6BE1
:1009980002F001020192019A02951A6B42F00402D8
:1009A8001A631B6B03F004030293029B1023039347
:1009B800022704970626079603A9174802F09AF912
:1009C8004FF4A4530393049705950695079603A936
:1009D800124802F08FF91248124B03604560402319
:1009E8008360C5604FF4806303614FF40063436123
:1009F8004FF400538361C5614FF4003303624562CD
:100A080002F0DAFA18B9064BA3639C63AAE7FFF76A
:100A180041FEF8E7003C00400000024000080240A8
:100A2800AC0100208860024008B500220F49104838
:100A380003F0D4F870B90F490D4803F0EBF860B92A
:100A48000D490B4803F039FF50B9094803F0F6F88F
:100A580048B908BDFFF71EFEEDE7FFF71BFEEFE7FD
:100A6800FFF718FEF1E7FFF715FEF2E70000002098
:100A7800A8020020780000205000002012230B80DC
:100A8800004870471C00002004230B800048704772
:100A980030000020002393421ED200B510E00CF174
:100AA800370C01F813C000014FEA430C0CF1010C9C
:100AB8004FF0000E01F80CE00133DBB2934209D28B
:100AC8004FEA107CB0F1204FE9D20CF1300C01F85C
:100AD80013C0E8E75DF804FB7047000038B50B4B1E
:100AE800D3F8100AD3F8144AD3F8183AC01800D12A
:100AF80038BD074D0822A91CFFF7CCFF042205F1D9
:100B080012012046FFF7C6FFF2E700BF0070FF1F83
:100B18003400002008B51A230B80FFF7DFFF0148D7
:100B280008BD00BF3400002008B50A4628B90549A9
:100B3800054803F0E5FC034808BD0249024803F0F4
:100B4800DFFCF8E778050020584B000810B50A4686
:100B5800034C2146034803F0D3FC204610BD00BFD8
:100B6800780500206C4B000808B50A4628B90549E5
:100B7800054803F0C5FC034808BD0249024803F0D4
:100B8800BFFCF8E778050020804B000808B50A4646
:100B980028B90549054803F0B3FC034808BD0249D4
:100BA800024803F0ADFCF8E778050020904B0008F8
:100BB80000207047002070470020704700207047D1
:100BC80000207047002070470020704770B588B03B
:100BD8000023039304930593069307930368B3F1E3
:100BE800A04F01D008B070BD002501951A4C236BA9
:100BF80043F001032363236B03F001030193019B7B
:100C08004FF400730393154E03A9304602F072F8AF
:100C18004FF4E053039302230493059506950A23A2
:100C2800079303A9304602F065F8636B43F080032D
:100C380063630295636C43F480436364636C03F4F9
:100C480080430293029B2A462946432002F01AFB5E
:100C5800432002F04FFBC5E7003802400000024085
:100C680008B500F57171D0F8040402F0FCFF08BD66
:100C780008B5C1EBC10300EB8303D3F80822D0F811
:100C8800040403F01CF808BD08B5C1EBC10300EB70
:100C980083039A6CD0F8040403F04AF808BD08B539
:100CA800D0F8040403F0E0F808BD10B50446C368A2
:100CB8003BB1022B01D1012104E0FFF7EBFC01213C
:100CC80000E00021D4F8040403F0B7F8D4F80404D1
:100CD80003F08AF810BD000010B50446D0F80404EB
:100CE80003F0AEF82268D2F8003E43F00103C2F8E0
:100CF800003E236A23B1034A136943F006031361D4
:100D080010BD00BF00ED00E008B5D0F8040403F002
:100D1800A0F808BD08B5D0F8040403F0B5F808BD7C
:100D280008B5D0F8040403F0ADF808BD08B5D0F84C
:100D3800040403F0ABF808BD08B5D0F8040403F0C8
:100D4800A7F808BD02780AB10020704710B503461D
:100D58001548C0F80434C3F8C4024FF0A043036038
:100D6800042343600222C260002303618261C361DD
:100D780003624362C362036300F0EAF880B90A4C75
:100D88008021204600F017FE40220021204600F076
:100D9800ECFD80220121204600F0E7FD002010BD77
:100DA800FFF778FCEBE700BF78070020D0F8C432E3
:100DB80011F0800F08D101F07F01C1EBC10103EBF5
:100DC800810191F8FE01704701F07F01C1EBC1017B
:100DD80003EB810191F83E00704708B5D0F8C402D2
:100DE80000F00CFD08BD032805D8DFE800F0050475
:100DF8000205012070470320704708B5D0F8C402E7
:100E080000F03DF9FFF7EFFF08BD08B594461A4614
:100E18006346D0F8C40200F044FCFFF7E4FF08BDC5
:100E280008B5D0F8C40200F081FCFFF7DCFF08BD6C
:100E380008B5D0F8C40200F019FDFFF7D4FF08BDCB
:100E480008B5D0F8C40200F055FDFFF7CCFF08BD87
:100E580008B5D0F8C40200F010FCFFF7C4FF08BDC5
:100E680008B5D0F8C40200F0D2FCFFF7BCFF08BDFB
:100E780008B5D0F8C40200F092FCFFF7B4FF08BD33
:100E88002DE9F04383B0D0F80080C1EBC10300EB3B
:100E980083035A6D1B6D9A4254D807460C469B1A19
:100EA800C1EBC10200EB8202526C9A4200D31A468F
:100EB80002F103094FEA990915E006F103094FEA1F
:100EC8009909C4EBC40507EB8505A96C3B7C009325
:100ED800B3B2E2B2404601F0C3F8AB6C3344AB6442
:100EE8006B6D33446B6508EB441303F510639B6922
:100EF8009BB24B4512D3C4EBC40207EB8202516D7F
:100F0800136D99420AD24BB15B1AC4EBC40207EBCA
:100F18008202566C9E42D0D31E46CEE7C4EBC40074
:100F280007EB80073A6D7B6D9A420FD804F00F04E7
:100F38000123A340D8F8344824EA0304C8F8344805
:100F4800002000E0012003B0BDE8F0830020FAE7AC
:100F580070B58AB0002800F090800546046890F8C3
:100F6800BD333BB3032385F8BD33E36B13F4807FB4
:100F780001D100232B61286800F0FEFD2C4654F8AF
:100F8800106BEC460FCCACE80F000FCCACE80F00B0
:100F980094E803008CE803002B1D0ECB304600F0CC
:100FA8002DFD044658B1022385F8BD33012420469F
:100FB8000AB070BD80F8BC33FFF708FED2E7002105
:100FC800286800F0DFFD234616E0C3EBC30205EBFB
:100FD8008202012182F83D1082F83C30A2F84230AA
:100FE800002182F83F1051649164C3EBC30205EB02
:100FF800820211650133DBB269688B42E5D316E0E2
:10100800C4EBC40305EB8303002283F8FD2183F8B6
:10101800FC4183F8FF21C3F80422C3F80822C4EB7B
:10102800C40305EB8303C3F810220134E4B2A142E0
:10103800E6D82C4654F8106BEC460FCCACE80F0001
:101048000FCCACE80F0094E803008CE803002B1DDC
:101058000ECB304600F0DCFD044620B1022385F8B3
:10106800BD330124A3E7002385F83830012385F830
:10107800BD33286801F0B0F999E7012497E70268C1
:1010880090F8BC33012B19D010B50446012380F821
:10109800BC33836A012B09D0206800F067FD206803
:1010A80001F08CF9002084F8BC0310BD8369012B82
:1010B800F2D0936B43F480339363EDE702207047DB
:1010C80070B504460D460068066C00EB411303F545
:1010D80030639A682169012911D034498E424ED073
:1010E8003DB9C5EBC50304EB8303D3F81032002BDD
:1010F80056D0E9B22046FFF7BBFD002070BD12F0C4
:10110800080F09D02A498E42F7D912F4004FF4D0BB
:101118004FF400429A60F0E712F0200F02D020222C
:101128009A60EAE712F0280FE7D121498E4206D9E2
:1011380012F4004F03D04FF400429A60DDE7C5EB8C
:10114800C50204EB8202D2F804121B69C3F312032E
:10115800CB1AC2F81432D2F808320B44C2F808325B
:1011680015B9D2F8103223B1E9B22046FFF780FD55
:10117800C3E704F57172012101F082F9F4E712F472
:10118800004F03D04FF400429A60B6E712F0200FE8
:1011980001D020229A60E9B22046FFF769FDACE74A
:1011A80004F57172002101F06BF9A2E70A31544F7E
:1011B8000A30544F38B5044603681D6C03EB4113DD
:1011C800D3F8081B0E4A954207D903F5306311F48A
:1011D800004F02D04FF400429A602046FFF740FDCE
:1011E800074B9D4202D92369012B01D0002038BD4D
:1011F80004F571720121206801F042F9F6E700BF99
:101208000A30544F2DE9F84F04460568284601F086
:1012180022F908B1BDE8F88F0646206801F0EAF81F
:101228000028F7D0206801F0E5F810F0020F04D08C
:101238002268536903F002035361206801F0DAF869
:1012480010F0100F13D02268936923F010039361F4
:101258002F6A07F00F08C7F34343022B68D0062B09
:1012680000F084802268936943F01003936120683A
:1012780001F0C0F810F4002F40F08A80206801F0D7
:10128800B9F810F4802F40F0CC80206801F0B2F853
:101298000028C0F23681206801F0ACF810F4006F25
:1012A8000AD0D5F8083813F0010F40F044812268BD
:1012B800536903F400635361206801F09BF810F44C
:1012C800805F40F03C81206801F094F810F4005FE2
:1012D80040F09181206801F08DF810F0080F40F07F
:1012E800A281206801F086F810F4801F40F0A481E4
:1012F800206801F07FF810F4001F40F0A7812068F3
:1013080001F078F810F0804F40F0AA81206801F0D1
:1013180071F810F0040F3FF47DAF23685D6815F095
:10132800040F40F0A681226853682B43536071E78D
:1013380047F6F0731F4295D04FEA171BC8EBC80950
:1013480004EB8909C7F30A12D9F80812284600F0F5
:10135800BBFFCBF30A02D9F808321344C9F80832A4
:10136800D9F814321A44C9F814227BE7082204F584
:101378007171284600F0A8FFC7F30A17C8EBC80226
:1013880004EB8202D2F814321F44C2F8147269E7DF
:10139800206801F033F80746B04616E005EB48131D
:1013A8000122C3F8082B41462046FFF789FE1BE0BF
:1013B80005EB48130822C3F8082B41462046FFF7DF
:1013C800F9FE14E008F101087F08002F3FF456AF3A
:1013D80017F0010FF6D05FFA88F1206801F01EF8C7
:1013E800814610F0010FD9D119F0080FE0D119F09A
:1013F800100F04D005EB48131022C3F8082B19F07E
:10140800200F04D005EB48132022C3F8082B19F449
:10141800005FD7D005EB48134FF40052C3F8082BF0
:10142800D0E7206800F0F2FF0746B04629E05146B1
:101438002046FFF729FC19F0080F04D005EB4813E4
:101448000822C3F8082919F0100F04D005EB481337
:101458001022C3F8082919F0400F04D005EB4813EF
:101468004022C3F8082919F0020F04D005EB4813ED
:101478000222C3F8082919F0800F3DD108F10108AC
:101488007F08002F3FF401AF17F0010FF6D05FFA85
:1014980088FA5146206800F0CAFF814610F0010F13
:1014A800C9D008F00F03012101FA03F2D5F8343846
:1014B80023EA0203C5F8343805EB4813C3F80819C2
:1014C80023698B42B3D1C8EBC80304EB8303596C7F
:1014D8009A6C0A449A64B8F1000FA8D1C8EBC80303
:1014E80004EB83031B6D002BA1D104F5717201215C
:1014F800206800F0C5FF9AE741462046FFF7C0FC88
:10150800BCE7D5F8043823F00103C5F8043894F88B
:10151800F433012B08D02046FFF7F6FB2268536905
:1015280003F000435361B6E6002184F8F413204623
:1015380000F045FAF2E72046FFF7CEFBB7E605F5DF
:1015480000677B6823F001037B601021206800F0AE
:1015580031FB20E005EB46134FF67F31C3F808193D
:10156800D3F8002922F40012C3F80029D3F800297F
:1015780042F00062C3F80029C3F8081BD3F8002B17
:1015880022F40012C3F8002BD3F8002B42F00062BB
:10159800C3F8002B01366368B342DBD8FB6943F01C
:1015A8000113FB61236BDBB1D7F8843043F00B03E5
:1015B800C7F884307B6C43F00B037B64D5F80038A4
:1015C80023F4FE63C5F8003804F57172217C2068A5
:1015D80000F056FF2268536903F48053536172E6A2
:1015E8007B6943F4005343F02B037B613B6943F071
:1015F8000B033B61E2E7206800F031FF206800F050
:10160800CFFBE060256801F07BFA0146227B284683
:1016180000F03AFA2046FFF748FB2268536903F4C2
:101628000053536156E62046FFF739FB2268536999
:1016380003F00803536154E600212046FFF770FBCE
:101648002268536903F48013536151E60021204650
:10165800FFF760FB2268536903F4001353614EE6F9
:101668002046FFF763FB2268536903F08043536108
:101678004CE62046FFF760FB55E690F8BC33012B9B
:101688000DD010B50446012380F8BC3380F838101B
:10169800006800F083FE002084F8BC0310BD02201F
:1016A800704738B505468C4611F0800F29D101F0F6
:1016B8000F0ECEEBCE04A40004F5FC740444211DE7
:1016C800CEEBCE0E00EB8E0E00208EF8FD010CF056
:1016D8000F0C81F800C08A60CB704A780AB1A1F873
:1016E80006C0022B1DD095F8BC33012B1CD001235A
:1016F80085F8BC33286800F064FB002085F8BC033B
:1017080038BD01F00F00C0EBC00189003831294411
:101718000431C0EBC00005EB8000012480F83D4097
:10172800D5E700230B71DEE70220E9E710B5044690
:101738000A4611F0800F20D101F00F00C0EBC00362
:101748009B0003F5FC732344191DC0EBC00004EB98
:101758008000002380F8FD3102F00F020A7094F82F
:10176800BC33012B19D0012384F8BC33206800F066
:1017780077FB002084F8BC0310BD01F00F00C0EB1C
:10178800C0039B0038332344191DC0EBC00004EB91
:101798008000012380F83D30DEE70220ECE710B539
:1017A80001F00F04C4EBC401890001F5FC71014488
:1017B8000431C4EBC40C00EB8C0CCCF80822CCF838
:1017C80010320023CCF814328CF8FD318CF8FC412F
:1017D8000369012B06D064B9DAB2006800F0B0FBE7
:1017E800002010BDC4EBC40C00EB8C0CCCF80C2210
:1017F800F1E7DAB2006800F04BFCF1E701F00F0105
:10180800C1EBC10100EB8101D1F81402704710B59A
:1018180001F00F04C4EBC4018900383101440431DC
:10182800C4EBC40C00EB8C0CCCF84820CCF850303E
:101838000023CCF8543001238CF83D308CF83C4020
:101848000369012B06D064B9DAB2006800F078FBAE
:10185800002010BDC4EBC40C00EB8C0CCCF84C2061
:10186800F1E7DAB2006800F013FCF1E738B501F0EF
:101878000F054268954239D804460B4611F0800F8F
:101888001FD1C1EBC101890001F5FC71014404318C
:10189800C3EBC30300EB8303002283F8FD2101237C
:1018A8008B700D7094F8BC33012B21D0012384F880
:1018B800BC33206800F017FD8DB1002084F8BC030C
:1018C80038BDC5EBC5018900383101440431C5EB89
:1018D800C50300EB8303012283F83D20DFE704F50D
:1018E8007172217C206800F0CBFDE6E70120E7E774
:1018F8000220E5E701F00F034268934231D810B5A2
:10190800044611F0800F1ED1C3EBC301890001F515
:10191800FC7101440431C3EBC30200EB82020020D6
:1019280082F8FD0100228A700B7094F8BC33012BF9
:1019380019D0012384F8BC33206800F001FD002091
:1019480084F8BC0310BDC3EBC301890038310144DE
:101958000431C3EBC30200EB8202012082F83D0090
:10196800E0E7012070470220ECE710B40468606AE1
:1019780031B940EA0240A06200205DF8044B70478C
:101988008C46A36A00EB1340002308E003F14001F2
:1019980004EB8101496800EB11400133DBB20CF123
:1019A800FF318B42F2D340EA02400CF13F0104EBD5
:1019B80081014860E0E7036859620020704770477A
:1019C800002301330C4A934211D80269002AF8DA3D
:1019D800036943F00103036100230133064A93427C
:1019E80007D8026912F0010FF7D1002070470320D1
:1019F80070470320704700BF400D030084B010B546
:101A0800044603A880E80E00089B012B1FD1A36B96
:101A180023F48033A363E36823F4840323F04003AF
:101A2800E360E36823F44013E3600F9B012B09D0C4
:101A38002046FFF7C5FF069B012B1BD0BDE81040D1
:101A480004B07047E36843F48013E360F0E7E368A9
:101A580043F04003E3602046FFF7B2FF0C9B23B935
:101A6800A36B43F48033A363E5E7A36B23F48033CC
:101A7800A363E0E7A36843F00603A360A36843F009
:101A88002003A360DAE70000022A0AD00921C2680D
:101A980022F47052C260C36843EA8123C360002005
:101AA8007047234B0B44234A93422FD9224B0B44B4
:101AB800224A93422CD9A1F57403A3F51053204A66
:101AC800934227D9A1F18373A3F5E7431D4A9342B3
:101AD80022D31D4B0B441D4A93421FD91C4B0B4468
:101AE8001C4A93421CD31C4B0B441C4A934219D3E7
:101AF800A1F1B773A3F55853194A934214D3194B5C
:101B08000B44194A934211D20721C0E70F21BEE7BF
:101B18000E21BCE70D21BAE70C21B8E70B21B6E787
:101B28000A21B4E70921B2E70821B0E70621AEE7A8
:101B3800405327FFFF340C00401E1BFF3F420F009D
:101B48007F4F120020D6130060B6E5FE5FE3160053
:101B580000D3CEFE40771B00C05BB3FEC0912100CE
:101B680020753800E05459FEE09C4100836843F03A
:101B78000103836000207047836823F001038360BA
:101B88000020704708B5C36823F0C043C36001292B
:101B980009D069B9C36843F08043C360322001F0BB
:101BA8001DFC002008BDC36843F00053C360F5E77F
:101BB8000120F7E7890141F0200101610023013389
:101BC800054A934205D8026912F0200FF7D1002088
:101BD80070470320704700BF400D030010230361C6
:101BE80000230133054A934205D8026912F0100F09
:101BF800F7D1002070470320704700BF400D030055
:101C0800D0F800381943C0F80018002070470000C9
:101C180084B02DE9F041044607A880E80E000023AF
:101C280006E003F1400204EB820200215160013317
:101C38000E2BF6D9119F27BBD4F8043843F00203C2
:101C4800C4F80438A36B43F40013A363A36B23F411
:101C58000023A363A36B23F48023A3630023C4F8A6
:101C6800003E04F50065D4F80038C4F800380C9B31
:101C7800012B14D1099B6BB900212046FFF7C0FF47
:101C880011E0A36B23F40013A363A36B43F40023B5
:101C9800A363E3E701212046FFF7B2FF03E0032136
:101CA8002046FFF7ADFF10212046FFF783FF80464F
:101CB80008B14FF001082046FFF790FF08B14FF038
:101CC800010800232B616B61EB610AE0C3B94FF097
:101CD8000060C2F8000900220A614FF67F328A606C
:101CE80001330799994210D904EB431202F51061A8
:101CF800D2F800090028E9DB0020C2F80009EAE769
:101D08004FF09040C2F80009E5E700230AE0C3B1AC
:101D18004FF0904CC2F800CB002202614FF67F32A0
:101D280082600133994211D904EB431202F5306005
:101D3800D2F8006B002EEADB4FF0000CC2F800CBA3
:101D4800EAE74FF0006CC2F800CBE5E72B6923F413
:101D580080732B610023A3616FF0804363610A9B4A
:101D68001BB9A36943F01003A361A2690B4B13438A
:101D7800A3610D9B1BB1A36943F00803A361012F65
:101D880004D04046BDE8F04104B07047A36943F071
:101D9800804343F00403A361F3E700BF00383C80AD
:101DA800D0F8083813F0060307D0022B07D0062B0B
:101DB80001D00F2070470220704700207047022092
:101DC800704710B591F800C04B78012B23D000F56F
:101DD800006ED0F81C380CF00F040122A24043EA30
:101DE8000243C0F81C3800EB4C10D0F8003B13F449
:101DF800004F0ED1D0F8003B8A68C2F30A02C978B6
:101E080042EA8142134343F0805343F40043C0F84D
:101E1800003B002010BDD0F81C280CF00F0E03FA70
:101E28000EF39BB21343C0F81C3800EB4C10D0F8EB
:101E3800003913F4004FECD1D0F800398A68C2F3A6
:101E48000A02C97842EA814242EA8C5C43EA0C03FE
:101E580043F0805343F40043C0F80039D9E7000049
:101E680030B40B784A78012A26D000EB4313D3F814
:101E7800002B002A52DBD0F83C480A7802F00F0207
:101E88004FF0010C0CFA02F224EA0242C0F83C2896
:101E9800D0F81C28097801F00F010CFA01FC22EA9D
:101EA8000C42C0F81C28D3F8001B234A0A40C3F888
:101EB800002B002030BC704700EB4313D3F80029F7
:101EC800002A1EDBD0F83C580A7802F00F020124E1
:101ED80004FA02F292B225EA0202C0F83C28D0F8CD
:101EE8001C28097801F00F018C40A4B222EA0404EE
:101EF800C0F81C48D3F80019104A0A40C3F8002952
:101F0800D7E7D3F8002942F00062C3F80029D3F8D4
:101F1800002942F08042C3F80029D3E7D3F8002B08
:101F280042F00062C3F8002BD3F8002B42F0804245
:101F3800C3F8002B9FE700BF0078F3EF007833EC7D
:101F480070B40B784C78012C27D000EB431000F5C7
:101F580030631C69E40CE4041C611C6924F0FF5420
:101F680024F4C0141C614C690CB18C684C611C6968
:101F780044F400241C611C698D68C5F3120C44EA02
:101F88000C041C61012A66D0D0F8003B43F00443DE
:101F9800C0F8003B002070BC70474C696CBB00EB7C
:101FA8004314D4F8105925F0FF5525F4C015C4F88A
:101FB8001059D4F8105945F40025C4F81059D4F82C
:101FC8001059ED0CED04C4F81059012A34D000EB77
:101FD8004313D3F8002942F00442C3F800294B699F
:101FE800002BD7D0D0F834380A7802F00F0101223C
:101FF8008A401343C0F83438CCE700EB431404F5A7
:1020080010642569ED0CED042561256925F0FF555F
:1020180025F4C01525618D684E69AE4200D94D6121
:10202800256945F40025256125694E69C6F3120C1A
:1020380045EA0C052561C8E70A691AB100EB4311A6
:10204800C1F8142900EB4310D0F8002942F00442EB
:10205800C0F800299EE7CA68002A95D05A6193E71C
:1020680010B59DF8084084B903334FEA930E4FF03A
:10207800000C08E000EB023303F5805351F8044BE1
:102088001C600CF1010CF445F4D3002010BD0000D5
:10209800F0B583B00B784C78012C33D000EB4313A8
:1020A80003F5306CDCF81040E40CE404CCF8104084
:1020B800DCF8104024F0FF5424F4C014CCF810408D
:1020C8004C69002C40F0CA80DCF810408D68C5F3DC
:1020D80012052C43CCF81040DCF8104044F40024DE
:1020E800CCF81040012A00F0D380CA78012A00F009
:1020F800D680D3F8002B42F00442C3F8002B00200E
:1021080003B0F0BD4C6984BB00EB4314D4F81059FC
:1021180025F0FF5525F4C015C4F81059D4F8105906
:1021280045F40025C4F81059D4F81059ED0CED0405
:10213800C4F81059012A4FD000EB4313D3F80049D3
:1021480044F00444C3F80049CC78012C6DD04B69A5
:10215800002BD4D0D0F834380A7802F00F010122CD
:102168008A401343C0F83438C9E700EB4314D4F865
:102178001059ED0CED04C4F81059D4F8105925F095
:10218800FF5525F4C015C4F81059D4F810598E68B5
:102198004F6907EB060C0CF1FF3CBCFBF6FC494E03
:1021A80006EACC4C45EA0C05C4F81059D4F8105985
:1021B8004E69C6F312063543C4F8105904F5106485
:1021C800CD78012DB6D1256925F0C0452561256951
:1021D80045F000552561ADE70A691AB100EB4314D3
:1021E800C4F81429CA78012A08D000EB4313D3F89D
:1021F800002942F00442C3F8002980E7D0F80828F3
:1022080012F4807F08D100EB4311D1F8002942F085
:102218000052C1F80029E8E700EB4311D1F8002982
:1022280042F08052C1F80029DFE7D0F8084814F4DA
:10223800807F0CD1D3F8004944F00054C3F800491A
:1022480000928B8A0A78C968FFF70AFF57E7D3F824
:10225800004944F08054C3F80049F1E78D682C44E4
:10226800013CB4FBF5F4DCF810501FFA84FE154E5F
:1022780006EAC4442543CCF81050DCF810508C68AA
:102288000EFB04F4C4F312042C43CCF8104029E7E5
:10229800CA68002A3FF429AFCCF8142025E7D0F803
:1022A800082812F4807F06D1D3F8002B42F00052A0
:1022B800C3F8002B1DE7D3F8002B42F08052C3F877
:1022C800002B16E70000F81F84460846D11C890831
:1022D800002305E00CF58052126840F8042B013306
:1022E8008B42F7D370470B784A78012A14D000EB59
:1022F8004310D0F8002B002A06DB2BB1D0F8003BA6
:1023080023F08043C0F8003BD0F8003B43F40013AF
:10231800C0F8003B0020704700EB4310D0F80029BC
:10232800002A06DB2BB1D0F8003923F08043C0F82F
:102338000039D0F8003943F40013C0F80039E9E750
:102348000B784A78012A0ED000EB4310D0F8003BF6
:1023580023F40013C0F8003BCB78023BDBB2012B1F
:1023680015D90020704700EB4310D0F8003923F44A
:102378000013C0F80039CB78023BDBB2012BF0D850
:10238800D0F8003943F08053C0F80039E9E7D0F8B5
:10239800003B43F08053C0F8003BE2E7D0F8003838
:1023A80023F4FE63C0F80038D0F80038090101F4BE
:1023B800FE611943C0F8001800207047D0F8003EAD
:1023C80023F00303C0F8003ED0F8043823F00203DA
:1023D800C0F8043800207047D0F8003E23F003030B
:1023E800C0F8003ED0F8043843F00203C0F80438BF
:1023F800002070474269806910407047D0F818384B
:1024080000F50060C0691840000C7047D0F8183813
:1024180000F50060C069184080B2704700EB4111B8
:10242800D1F8082B00F5006040691040704710B4DF
:10243800D0F81048D0F8343801F00F02D340DB014F
:10244800DBB2234300EB411000F5106080681840B0
:102458005DF8044B7047406900F001007047D0F800
:10246800003923F4FF6323F00703C0F80039D0F8DC
:10247800043843F48073C0F8043800207047000023
:1024880010B4046C154B9C4203D9D0F8003B002BC8
:1024980016DB0024C0F8104BD0F8104B44F400248D
:1024A800C0F8104BD0F8104B44F01804C0F8104B8B
:1024B800D0F8104B44F0C044C0F8104B012903D0A9
:1024C80000205DF8044B7047C0F8142BD0F8003B8F
:1024D80043F08023C0F8003BF2E700BF0A30544FB6
:1024E800002800F0DA8170B582B00446036813F062
:1024F800010F3BD09F4B9B6803F00C03042B2CD09F
:102508009C4B9B6803F00C03082B21D06368B3F540
:10251800803F4FD0B3F5A02F52D0964B1A6822F4C3
:1025280080321A601A6822F480221A606368002BCD
:1025380050D000F04DFF05468E4B1B6813F4003F4A
:1025480014D100F045FF401B6428F5D90320ABE106
:10255800884B5B6813F4800FD8D0864B1B6813F444
:10256800003F03D06368002B00F09981236813F0C3
:10257800020F54D07F4B9B6813F00C0F3ED07D4B5D
:102588009B6803F00C03082B33D0E368002B68D05A
:10259800794B01221A6000F01BFF0546754B1B683A
:1025A80013F0020F54D100F013FF401B0228F5D995
:1025B800032079E16F4A136843F480331360B5E769
:1025C8006C4B1A6842F480221A601A6842F480320E
:1025D8001A60ABE700F0FCFE0546664B1B6813F477
:1025E800003FC3D000F0F4FE401B6428F5D9032057
:1025F8005AE1604B5B6813F4800FC6D15D4B1B68D2
:1026080013F0020F03D0E368012B40F04A81594AC6
:10261800136823F0F803216943EAC10313602368B0
:1026280013F0080F42D063696BB3534B0122C3F810
:10263800802E00F0CDFE05464E4B5B6F13F0020F67
:1026480034D100F0C5FE401B0228F5D903202BE148
:10265800484A136823F0F803216943EAC103136069
:10266800DDE7454B00221A6000F0B2FE0546414BFB
:102678001B6813F0020FD2D000F0AAFE401B0228FC
:10268800F5D9032010E13C4B0022C3F8802E00F05E
:102698009FFE0546374B5B6F13F0020F06D000F024
:1026A80097FE401B0228F5D90320FDE0236813F0AC
:1026B800040F77D02F4B1B6C13F0805F33D10023AE
:1026C80001932C4B1A6C42F080521A641B6C03F075
:1026D80080530193019B0125284B1B6813F4807FCD
:1026E80023D0A368012B34D0052B38D0214B1A6F87
:1026F80022F001021A671A6F22F004021A67A3680F
:10270800002B3DD000F064FE06461A4B1B6F13F0F9
:10271800020F46D100F05CFE801B41F288339842DC
:10272800F3D90320C0E00025D6E7144A136843F420
:102738008073136000F04CFE0646104B1B6813F4C0
:10274800807FCED100F044FE801B0228F5D90320FB
:10275800AAE0084A136F43F001031367CFE7054B5C
:102768001A6F42F004021A671A6F42F001021A67E0
:10277800C5E700BF00380240000047420070004033
:1027880000F026FE06464F4B1B6F13F0020F08D0D1
:1027980000F01EFE801B41F288339842F3D90320D3
:1027A80082E0E5B9A369002B7DD0464A926802F021
:1027B8000C02082A51D0022B17D0434B00221A666C
:1027C80000F006FE04463F4B1B6813F0007F42D022
:1027D80000F0FEFD001B0228F5D9032064E0394A09
:1027E800136C23F080531364DCE7374B00221A661E
:1027F80000F0EEFD0546334B1B6813F0007F06D052
:1028080000F0E6FD401B0228F5D903204CE0E369FF
:10281800226A1343626A43EA8213A26A5208013A9F
:1028280043EA0243E26A43EA0263264A5360264BBC
:1028380001221A6600F0CCFD0446224B1B6813F0F7
:10284800007F06D100F0C4FD001B0228F5D9032043
:102858002AE0002028E0002026E0012B26D0194B92
:102868005B6803F48001E269914221D103F03F02E1
:10287800216A8A421ED1616A47F6C0721A408A42AA
:102888001AD103F44032A16A8A4217D103F0706367
:10289800E26A934214D1002006E00120704701202B
:1028A80002E0012000E0002002B070BD0120FBE73B
:1028B8000120F9E70120F7E70120F5E70120F3E718
:1028C8000120F1E7003802400000474208B5314BCB
:1028D8009B6803F00C03042B57D0082B57D12D4BC2
:1028E8005A6802F03F025B6813F4800F2AD0294B24
:1028F8005968C1F3881C4FEA4C11B1EB0C006EEB20
:102908000E0E4FEA8E1343EA90638101091A63EBB6
:102918000E03DB0043EA5173C90011EB0C0C43F1C1
:102928000003590200234FEA4C2041EADC51FDF72D
:1029380047FC184B5B68C3F3014301335B00B0FBF2
:10294800F3F025E0134B5968C1F3881C4FEA4C118A
:10295800B1EB0C006EEB0E0E4FEA8E1343EA906358
:102968008101091A63EB0E03DB0043EA5173C900C6
:1029780011EB0C0C43F10003990200234FEA8C2061
:1029880041EA9C51FDF71CFCD3E7034800E00348EB
:1029980008BD00BF0038024000127A000024F4008D
:1029A800002800F09B8070B50D4604464F4B1B680D
:1029B80003F00F038B4208D2CBB24C4A1370136852
:1029C80003F00F038B4240F08B80236813F0020F53
:1029D80017D013F0040F04D0454A936843F4E0532A
:1029E8009360236813F0080F04D0414A936843F4B6
:1029F800604393603E4A936823F0F003A1680B4359
:102A08009360236813F0010F32D06368012B21D043
:102A18009A1E012A25D9364A126812F0020F61D08F
:102A280033498A6822F0030213438B6000F0D0FC1C
:102A380006462F4B9B6803F00C036268B3EB820FCA
:102A480016D000F0C5FC801B41F288339842F0D9BB
:102A5800032042E0264A126812F4003FE0D1012028
:102A68003BE0234A126812F0007FD9D1012034E0FC
:102A78001E4B1B6803F00F03AB4207D9EAB21B4B8E
:102A88001A701B6803F00F03AB422DD1236813F0B3
:102A9800040F06D0164A936823F4E053E1680B4309
:102AA8009360236813F0080F07D0114A936823F442
:102AB8006043216943EAC1039360FFF707FF0C4BAA
:102AC8009B68C3F303130B4AD35CD8400A4B1860C6
:102AD8000A4B186800F030FC002070BD01207047D8
:102AE8000120FAE70120F8E70120F6E7003C024060
:102AF80000380240A84B0008740000207000002035
:102B0800014B1868704700BF7400002008B5FFF734
:102B1800F7FF044B9B68C3F38223034AD35CD84076
:102B280008BD00BF00380240B84B000830B583B07C
:102B38000446036813F0050F06D1236813F0020F4B
:102B48002ED1002003B030BD4A4B00229A6600F017
:102B58003FFC0546484B1B6813F0006F06D000F099
:102B680037FC431B022BF5D90320EBE76268A36807
:102B78001B0743EA8213404AC2F884303D4B0122C6
:102B88009A6600F025FC05463B4B1B6813F0006F66
:102B9800D3D100F01DFC431B022BF5D90320D1E74C
:102BA80000230193344B1A6C42F080521A641B6C58
:102BB80003F080530193019B304A136843F48073F8
:102BC800136000F005FC05462C4B1B6813F4807F4E
:102BD80006D100F0FDFB431B022BF5D90320B1E71A
:102BE800254B1B6F13F4407314D0E26802F4407253
:102BF8009A420FD0204B1A6F22F440721D490120CF
:102C0800C1F8400E0020C1F8400E1A671B6F13F080
:102C1800010F13D1E36803F44072B2F5407F1ED070
:102C2800154A936823F4F813936013490B6FE2680D
:102C3800C2F30B0213430B67002083E700F0C8FBC5
:102C480005460D4B1B6F13F0020FE3D100F0C0FBDC
:102C5800401B41F288339842F3D9032072E70649B2
:102C68008A6822F4F81223F0704323F44073134364
:102C78008B60DAE7000047420038024000700040ED
:102C8800012801D000207047164B9B6813F40003FD
:102C980003D0012B23D114487047124B5B6813F4FF
:102CA800800F14D00F4B5B6803F03F030F48B0FB55
:102CB800F3F30C4AD2F88400C0F3881003FB00F049
:102CC800D2F88430C3F30273B0FBF3F07047054BBE
:102CD8005B6803F03F030648B0FBF3F3E9E7002025
:102CE800704700BF003802400080BB0000127A0025
:102CF8000024F40000230F2B00F2DA80F0B583B033
:102D08003AE0072200E00022AA4032430234694D2B
:102D180045F82420684A14686FEA0C0224EA0C0576
:102D28004E6816F4803F01D04CEA0405624C2560D9
:102D3800646802EA04054E6816F4003F01D04CEAC4
:102D480004055D4C6560A46802EA04054E6816F443
:102D5800801F01D04CEA0405574CA560E468224066
:102D68004D6815F4001F01D04CEA0402524CE26091
:102D780001330F2B00F29A8001229A400C6804EA72
:102D8800020C32EA0404F3D14C68651E012D03D904
:102D9800112C01D0122C12D185685E000324B44096
:102DA80025EA0405CC68B4402C438460456825EACC
:102DB80002054C68C4F300129A402A434260C56871
:102DC8004FEA430E032404FA0EF4E24325EA04050D
:102DD8008C6804FA0EF42C43C4604C68022C01D0B1
:102DE800122C0FD1DD08083550F8257003F00704C0
:102DF800A6000F24B44027EA04070C69B4403C43FA
:102E080040F82540046814404A6802F0030202FAB8
:102E18000EF2224302604A6812F0805FA8D00022B6
:102E28000192264A546C44F480445464526C02F46F
:102E380080420192019A9C08A51C1E4A52F82560FE
:102E480003F0030295000F22AA4026EA02061C4A54
:102E580090423FF458AF02F5806290421AD002F5D2
:102E68008062904218D002F58062904216D002F536
:102E78008062904214D002F58062904212D002F52E
:102E88008062904210D002F5806290423FF439AFE0
:102E9800082239E7012237E7022235E7032233E720
:102EA800042231E705222FE706222DE703B0F0BD03
:102EB800704700BF00380140003C01400038024024
:102EC800000002400AB181617047090481617047BE
:102ED800436931EA030301D08161704709048161C4
:102EE8007047000010B40368D9B210390C4AA2FB2D
:102EF800014212090B4CA25CC2655F2909D923F46F
:102F08007F7323F0030304338365806D5DF8044BFE
:102F1800704723F47F7323F003038365F5E700BF4D
:102F2800ABAAAAAAA04B0008836A826992B9012BAE
:102F38000AD0022B02D00BB100207047C36A13F0ED
:102F4800807F28D100207047C36AB3F1C07F24D0A6
:102F580000207047B2F5005F09D0022B25D9032B5A
:102F680025D1C36A13F0807F23D100207047032B3B
:102F780003D8DFE803F01404140A00207047C36A7A
:102F880013F0807F0DD100207047C36AB3F1C07F72
:102F980009D00020704701207047012070470120A8
:102FA80070470120704701207047012070470020BA
:102FB800704701207047000070B5044600F008FA19
:102FC800002C5BD00546002384F83430022384F8B3
:102FD80035302268136823F00103136023681A68E8
:102FE80012F0010F0AD000F0F3F9431B052BF5D9B5
:102FF80020236365032084F8350070BD1A682048D3
:1030080010406168A2680A43E1680A4321690A43DB
:1030180061690A43A1690A43E1690A43216A0A43CB
:103028000243616A04291ED01A602668756925F072
:103038000705636A1D43042B07D1A36A1D43E36A8E
:103048001BB12046FFF770FF90B975612046FFF766
:1030580049FFE26D3F2393408360002060650123B0
:1030680084F83530C9E7E16A206B01430A43DBE79E
:1030780040236365012084F83500BEE70120BCE7E2
:103088003F8010F0F0B583B0044600230193724BE3
:103098001D68724BA3FB0535AD0A876D3E68C26D8E
:1030A80008239340334210D003681A6812F0040FC3
:1030B8000BD01A6822F004021A60C26D08239340EC
:1030C800BB60436D43F001034365E26D0123934008
:1030D800334209D02268526912F0800F04D0BB60D5
:1030E800636D43F002036365E26D0423934033424A
:1030F80009D02268126812F0020F04D0BB60636D19
:1031080043F004036365E26D10239340334224D0F7
:103118002268126812F0080F1FD0BB6023681A6873
:1031280012F4802F0DD01B6813F4002F04D1236CE8
:103138009BB12046984710E0A36C73B1204698478E
:103148000BE01A6812F4807F03D11A6822F0080293
:103158001A60236C0BB120469847E26D20239340F8
:10316800334255D02268126812F0100F50D0BB605D
:1031780094F83530DBB2052B0ED023681A6812F4A8
:10318800802F33D01B6813F4002F2AD1636C002BD7
:103198003ED0204698473BE02268136823F0160388
:1031A80013602268536923F080035361236CA3B131
:1031B8002268136823F008031360E26D3F239340ED
:1031C800BB60002384F83430012384F83530236D44
:1031D800002B3FD0204698473CE0A36C002BE7D15A
:1031E800EBE7E36BA3B12046984711E01A6812F4A5
:1031F800807F09D11A6822F010021A60002384F82F
:103208003430012384F83530E36B0BB120469847FE
:10321800636DFBB1636D13F0010F17D0052384F8BC
:1032280035302268136823F001031360019B0133D2
:103238000193AB4204D823681B6813F0010FF5D142
:10324800002384F83430012384F83530E36C0BB163
:103258002046984703B0F0BD74000020B5814E1B8E
:10326800074AD36823F4E0631B041B0C000200F434
:10327800E060034343F0BF6343F40033D360704717
:1032880000ED00E000B5194BDB68C3F30223C3F17E
:10329800070CBCF1040F28BF4FF0040C03F1040E17
:1032A800BEF1060F18D9033B4FF0FF3E0EFA0CFC97
:1032B80021EA0C0199400EFA03F322EA03031943A9
:1032C80000280BDB0901C9B200F1604000F561403C
:1032D80080F800135DF804FB0023E5E700F00F0019
:1032E8000901C9B2024B1954F4E700BF00ED00E030
:1032F80014ED00E0002807DB00F01F02400901235D
:103308009340024A42F82030704700BF00E100E0D5
:103318000138B0F1807F0BD24FF0E0235861054AA5
:10332800F02182F823100020986107221A61704763
:103338000120704700ED00E010B504460E4B1878E8
:103348004FF47A73B3FBF0F30C4A1068B0FBF3F058
:10335800FFF7DEFF68B90F2C01D901200AE000222F
:1033680021464FF0FF30FFF78DFF054B1C60002012
:1033780000E0012010BD00BF6C0000207400002098
:103388007000002008B50B4B1A6842F400721A60EE
:103398001A6842F480621A601A6842F480721A60ED
:1033A8000320FFF75DFF0020FFF7C6FFFDF776FA61
:1033B800002008BD003C0240034A1168034B1B78FB
:1033C8000B441360704700BF800B00206C00002086
:1033D800014B1868704700BF800B002038B50446C1
:1033E800FFF7F6FF0546B4F1FF3F02D0044B1B7808
:1033F8001C44FFF7EDFF401BA042FAD338BD00BFC5
:103408006C000020002800F0CC8070B5044690F8CD
:103418003D30002B77D0242384F83D302268136890
:1034280023F0010313602268136843F40043136018
:103438002268136823F400431360FFF767FB626890
:103448005A4B9A4264D85A4B98428CBF00230123A6
:10345800002B40F0A8805749A1FB00318B0C256850
:103468006A6822F03F0242EA91426A6021680A6A69
:1034780022F03F0266684D4DAE424FD801331343E8
:103488000B622168CA6922F44F4222F0FF02666883
:10349800464B9E424CD8431E7600B3FBF6F30133ED
:1034A80040F6FC70034278D0C3F30B031343CB619F
:1034B80021680B6823F0C003E269206A02431343C2
:1034C8000B6021688B6823F4034323F0FF03226910
:1034D800E068024313438B602168CB6823F0FF0345
:1034E8006269A06902431343CB602268136843F002
:1034F8000103136000202064202384F83D302063FA
:1035080084F83E0070BD80F83C30FDF7E7F982E7AB
:10351800294B98428CBF0023012399E74FF49675F5
:1035280005FB03F3254DA5FB03539B090133A6E7D0
:10353800A368BBB9451E06EB460CB5FBFCF5013587
:10354800C5F30B05B5FA85F56D0945BBC3B9013857
:1035580006EB4603B0FBF3F30133C3F30B0343F469
:103568000043A3E7451E06EB860C0CEB8C0CB5FB61
:10357800FCF50135C5F30B05B5FA85F56D09E4E7EA
:10358800013806EB860303EB8303B0FBF3F3013347
:10359800C3F30B0343F4404388E7042386E701237E
:1035A80084E7012070470120ACE700BFA086010036
:1035B8007F841E0083DE1B43FF083D00D34D62104D
:1035C800002800F0C18038B5044690F84130002B3F
:1035D80051D0022284F841202168CB6923F47B630F
:1035E80023F00F03CB6123681A626369934263D0A7
:1035F800E368002B46D11025A368202B00D86D0066
:103608000120FFF73DFB2369B3F5007F3CD0B0FBF9
:10361800F5F000EB800043006069B3FBF0F305337D
:103628004A4AA2FB0323C3F3C002C2EBD3035B08DD
:1036380011029A1EFD2A41D822690A4321681343C0
:103648000B622168CB6923F47B6323F00F03626864
:10365800A0680243E0680243A0690243134343F4AD
:103668000063CB61236A012B2ED000206064012304
:1036780084F8413038BD80F84030354B4363FDF75E
:1036880065F9A6E72025B7E7E36853B1AD00B0FBBD
:10369800F5F000EB800043006069B3FBF0F30533FD
:1036A800BEE7ED00B0FBF5F000EB80004300606979
:1036B800B3FBF0F30533B3E70021BAE7636C43F0DB
:1036C800100363640120D5E7224B63632268224B11
:1036D8009A421FD04FF04022D36923F47B6323F032
:1036E8000F03D36122681C4B9A4215D04FF0402338
:1036F80002221A622268184B9A4210D04FF04021D9
:10370800CA6992B26368B3F5007F0AD0CBB94FF4A7
:10371800807C08E0114ADFE7A3F58063E8E70F49FA
:10372800EEE74FF4807CA068E568238B2B439BB2BF
:1037380003439BB243EA0C03134343F40063CB6196
:1037480093E74FF0000CEEE701207047CDCCCCCCCE
:10375800DF370008F1390008003800400034004025
:10376800704708B5426A03681288DA60436A023310
:103778004362438D9BB2013B9BB24385438D9BB211
:1037880003B108BD0268536823F0A0035360012306
:1037980080F84130FFF7E4FFF3E7704708B50368A6
:1037A800DA68C36A1A80C36A0233C362438E9BB263
:1037B800013B9BB24386438E9BB203B108BD0268AE
:1037C800536823F060035360012380F84130FFF70A
:1037D800E4FFF3E7704710B584B0044602689368C5
:1037E800039390F84130DBB2042B06D094F84130B3
:1037F800DBB2032B2CD004B010BD039B13F0010FD8
:1038080003D0536813F0400F1FD1039B13F0400FF0
:10381800ECD023685A6812F0200FE7D05A6822F0DB
:1038280060025A60002301932368DA6801929B685A
:103838000193019B012384F84130636C43F0020338
:1038480063642046FFF7C6FFD0E7FFF7A7FFDCE772
:10385800039B13F0020F04D023685B6813F0800FFA
:103868001DD1039B13F0080FC5D023685A6812F0C6
:10387800200FC0D05A6822F0A0025A600023029399
:1038880023689B680293029B012384F84130636C90
:1038980043F0040363642046FFF79CFFABE7204630
:1038A800FFF75FFFDDE7704708B5436A9A1C42627D
:1038B80002681B88D360438D9BB2013B9BB2438552
:1038C800438D9BB23BB90268536823F0A003536051
:1038D800438E9BB203B108BD012380F84130FFF746
:1038E800E2FFF8E708B50268154B9A421CD04FF082
:1038F8004023DA68C36A991CC1621A80438E9BB25E
:10390800013B9BB24386438E9BB263B902680C4B62
:103918009A420CD04FF04022536823F06003536062
:10392800438D9BB22BB108BDA3F58063E1E7054A3F
:10393800F2E7012380F84130FFF7B5FFF3E700BF56
:10394800003800400034004008B5436A9A1C4262BF
:103958001A880168134B994218D04FF04023DA6057
:10396800438D9BB2013B9BB24385438D9BB263B9A8
:1039780002680C4B9A420CD04FF04022536823F057
:10398800A0035360438E9BB22BB108BDA3F580639F
:10399800E5E7054AF2E7012380F84130FFF783FFA6
:1039A800F3E700BF003800400034004008B5036862
:1039B800DA68C36A991CC1621A80438E9BB2013BC4
:1039C8009BB24386438E9BB23BB90268536823F08F
:1039D80060035360438D9BB203B108BD012380F897
:1039E8004130FFF760FFF8E710B586B0044603687A
:1039F8009A680592704A93426FD04FF040229168BE
:103A080004915B680393536802936368B3F5007F7E
:103A180001D0002B70D1059B13F0020F03D0039B3C
:103A280013F0800F5CD1049B13F0010F03D0029BAD
:103A380013F0400F58D1049B13F0400F24D0029B81
:103A480013F0200F20D022685B4B9A4250D04FF0E1
:103A58004022536823F0600353602268536823F0C0
:103A6800A0035360002300932368DA6800929B68E0
:103A78000093009B012384F84130636C43F00203F8
:103A880063642046FFF7A6FE059B13F0080F22D0BB
:103A9800039B13F0200F1ED02268536823F0A00365
:103AA80053602268444B9A4224D04FF04022536816
:103AB80023F0600353600023019323689B680193FC
:103AC800019B012384F84130636C43F00403636471
:103AD8002046FFF77FFE06B010BDA2F580628EE794
:103AE8002046FFF7E1FE9EE72046FFF7FBFEA2E730
:103AF800324AAEE7314ADAE7049B13F0020F03D0EB
:103B0800029B13F0800F4AD1059B13F0010F03D0DD
:103B1800039B13F0400F46D1059B13F0400F1CD0B8
:103B2800039B13F0200F18D02268536823F060031A
:103B380053602268204B9A4239D04FF04022536894
:103B480023F0A0035360012384F84130636C43F0F1
:103B5800020363642046FFF73DFE049B13F0080F41
:103B6800B9D0029B13F0200FB5D02268124B9A42AD
:103B78001FD04FF04022536823F0A00353602268FF
:103B8800536823F060035360012384F84130636C69
:103B980043F0040363642046FFF71CFE9BE72046BE
:103BA800FFF7D2FEB0E72046FFF700FFB4E7034A6D
:103BB800C5E7024ADFE700BF003800400034004094
:103BC800054BD3F8882042F47002C3F888204FF0E0
:103BD80000629A60704700BF00ED00E0C0B108B510
:103BE8000346D0F8B80210B10020C3F8B802D3F8E1
:103BF800CC0210B10020C3F8CC0209B1C3F8B4124A
:103C0800012183F89C121A701846FDF79BF808BD2D
:103C18000320704710B582B00023ADF8063059B1C3
:103C28000446C0F8B8128B6A0DF106009847C4F82C
:103C3800CC02002002B010BD0320FBE708B5FDF759
:103C4800DCF808BD08B5D0F8B83213B11B6898473E
:103C580008BD0320FCE708B5D0F8B8320BB15B68A3
:103C68009847002008BD38B5044600F2AA25284622
:103C780000F02EF90123C4F89432B4F8B032C4F835
:103C8800983294F8AA1201F01F03012B0DD0022BD1
:103C980010D02BB101F080012046FDF7C9F803E0F0
:103CA8002946204600F0CEFA38BD2946204600F0C5
:103CB80001FBF9E72946204600F030FBF4E738B568
:103CC80004460D4631BB1346D0F89422032A01D08E
:103CD800084638BDD0F85C11D0F8602191420CD864
:103CE800D0F8B8321B691BB190F89C22032A0FD078
:103CF800204600F04EFC2846EBE7891AC0F85C1114
:103D08008A4228BF0A46194600F03BFC2846E0E7ED
:103D18009847EDE7D0F8B8329B692BB190F89C2210
:103D2800032A03D19847D4E70320D2E70320D0E73A
:103D380038B504460D46002948D11346D0F89422D8
:103D4800022A05D094F8A032012B3AD0284638BD73
:103D5800C269016A8A4211D88A421BD0D4F8B832A3
:103D6800DB681BB194F89C22032A27D080212046C7
:103D7800FDF75EF8204600F017FCE3E7521AC2612F
:103D8800194600F0E7FB00231A4619462046FDF7BE
:103D98006FF8D7E783699942E0D8D0F89822934220
:103DA800DCD20022114600F0D5FB0021C4F898129D
:103DB8000B460A462046FDF75BF8C3E720469847BE
:103DC800D4E7002384F8A0322846C0E7D0F8B832F8
:103DD8005B692BB190F89C22032A03D19847B6E778
:103DE8000320B4E70320B2E770B50446012380F846
:103DF8009C320023C0F894324360C0F8A432D0F853
:103E0800BC3223B1D0F8B8325B6800219847402310
:103E1800002211462046FCF7F8FF0126A4F8646149
:103E28004025C4F860512B46002280212046FCF72B
:103E3800ECFFA6842562002070BD01740020704745
:103E480090F89C3280F89D32042380F89C32002040
:103E5800704790F89C32042B01D00020704790F8EE
:103E68009D3280F89C32F8E708B590F89C32032B15
:103E780001D0002008BDD0F8B832DB69002BF8D09B
:103E88009847F6E7002070470020704700207047E9
:103E980008B5012380F89C32D0F8B83213B15B68BA
:103EA80001799847002008BD0346002002E0013050
:103EB800C0B201331A78002AF9D1704708B54B8887
:103EC800012B00D008BDC0F8A43200F062FBF9E76E
:103ED8000B7803704B7843708B78CA7843EA0223D7
:103EE80043800B794A7943EA022383808B79CA7924
:103EF80043EA0223C380704710B504468021FCF7CB
:103F080097FF00212046FCF793FF10BD30B583B022
:103F180004460D460023ADF806304A88130A013BD3
:103F2800062B00F2AB80DFE803F0041F33A9A98D4C
:103F38009A00D0F8B4321B680DF10601007C98474E
:103F4800EA88002A00F0A380BDF80630002B00F0B4
:103F580099809A4228BF1A46ADF8062001462046A5
:103F680000F0EBFA03B030BD037C43B9D0F8B832A7
:103F78009B6A0DF10600984702234370E0E7D0F8EA
:103F8800B832DB6A0DF10600984702234370D7E781
:103F9800D2B2052A52D8DFE802F003101D2A3744AE
:103FA800D0F8B4325B6823B10DF10601007C984764
:103FB800C6E72946FFF7A0FFD4E7D0F8B4329B68DC
:103FC80023B10DF10601007C9847B9E72946FFF7B0
:103FD80093FFC7E7D0F8B432DB6823B10DF10601CF
:103FE800007C9847ACE72946FFF786FFBAE7D0F888
:103FF800B4321B6923B10DF10601007C98479FE795
:104008002946FFF779FFADE7D0F8B4325B6923B1F1
:104018000DF10601007C984792E72946FFF76CFFEF
:10402800A0E7D0F8B4329B6923B10DF10601007CFA
:10403800984785E72946FFF75FFF93E72946FFF78B
:104048005BFF8FE7037C33B9D0F8B8325B6B0DF1B7
:104058000600984774E72946FFF74EFF82E7037C7E
:1040680043B9D0F8B8321B6B0DF106009847072307
:10407800437065E72946FFF73FFF73E72946FFF7D7
:104088003BFF6FE729462046FFF736FF6AE72046E1
:1040980000F07FFA66E738B504468B88F3B9CB8819
:1040A800E3B94B887F2B19D803F07F0590F89C3231
:1040B800032B0CD080F89E522946FCF7C9FE2046F7
:1040C80000F067FA35B1022384F89C3209E0FFF763
:1040D80013FF06E0012384F89C3202E02046FFF734
:1040E8000BFF38BD70B504460E468D782D4B1D70FC
:1040F800012D0FD890F89C32022B0FD0032B23D020
:10410800FFF7FAFE274B19782046FFF7A4FD032591
:10411800284670BDFFF7F0FE0325F9E78DB145602D
:104128002946FFF78FFD054620B131462046FFF7A7
:10413800E3FEEDE7204600F02CFA032384F89C32D6
:10414800E6E700F026FAE3E7CDB141688D4225D0D5
:10415800C9B2FFF780FD134B197861602046FFF75D
:1041680071FD0546B0B131462046FFF7C5FE2179FD
:104178002046FFF770FD022384F89C32C8E702232B
:1041880080F89C3245602946FFF765FD204600F01F
:1041980000FABDE7204600F0FCF9B9E700F0F9F9AC
:1041A8000025B5E7840B002008B5CB88012B0AD180
:1041B80090F89C32022B09D9032B09D10122011D49
:1041C80000F0BBF901E0FFF797FE08BD5BB213B939
:1041D800FFF792FEF9E70146002341F8083F012264
:1041E80000F0ABF9F1E708B590F89C32013B022BDF
:1041F80012D8CB88022B0CD10123C360D0F8A4328B
:104208000BB10323C360022200F10C0100F095F901
:1042180008BDFFF771FEFBE7FFF76EFEF8E708B58C
:1042280090F89C32013B022B09D84B88012B00D017
:1042380008BD0023C0F8A43200F0ABF9F8E7FFF797
:104248005BFEF5E738B50C7804F06004202C06D046
:10425800402C04D054B1FFF74FFE002404E0D0F8FE
:10426800B8329B6898470446204638BD4D78092DDA
:104278001DD8DFE805F012191C161C08051C0F0BC9
:10428800FFF744FEF0E7FFF706FFEDE7FFF72AFF29
:104298000446E9E7FFF788FFE6E7FFF7A4FF2C46A7
:1042A800E2E7FFF70BFEDFE7FFF7B9FFDCE7FFF711
:1042B80023FED9E770B505460C460B7803F060037A
:1042C800202B07D0402B05D023B1FFF715FE002681
:1042D800304670BD95F89C32013B022B18D82379E3
:1042E800012B0FD8D5F8B8329B6821462846984745
:1042F8000646E388002BEBD10028E9D1284600F0D8
:1043080048F9E5E721462846FFF7F6FD0026DFE7EE
:1043180021462846FFF7F0FD0026D9E7F8B50646FE
:104328000D468B880C7804F06004202C08D0D9B294
:10433800402C05D06CB12946FFF7DEFD002406E0CD
:10434800D6F8B8329B682946304698470446204636
:10435800F8BD6F78012F2ED0032F05D0002F56D02F
:104368002946FFF7C9FDF2E790F89C32022B05D0E9
:10437800032B12D02946FFF7BFFDE8E709B18029D2
:1043880004D129463046FFF7B7FDE0E7FCF750FDBA
:1043980080213046FCF74CFDD9E76B8823B919B169
:1043A800802901D0EB881BB1304600F0F2F8CEE747
:1043B800FCF73EFDF8E790F89C32022B05D0032B62
:1043C80012D02946FFF798FDC1E709B1802904D129
:1043D80029463046FFF790FDB9E7FCF729FD802113
:1043E8003046FCF725FDB2E76B88002BAFD111F002
:1043F8007F0F09D1304600F0CCF8D6F8B8329B6868
:10440800294630469847A2E7FCF71AFDF2E790F8EC
:104418009C22022A06D0032A29D02946FFF76CFDE0
:104428003C4694E709B1802913D113F0800F15D1C8
:1044380001F07F0101EB8101890001F5A871314488
:10444800043100230B600222304600F076F83C4627
:104458007DE72946FFF750FD3C4678E701F07F01EC
:1044680001EB81018900103131440431E9E75BB285
:10447800002B1FDB01F00F0202EB820200EB82022D
:10448800B2F8642122B3002B27DB01F07F0303EB92
:1044980083039C0004F5A8743444043409B18029CA
:1044A80024D10023236002222146304600F045F83B
:1044B8003C464CE701F00F0202EB820200EB82025D
:1044C800928C002ADFD12946FFF716FD3C463EE7CD
:1044D8002946FFF711FD3C4639E701F07F0303EB5E
:1044E80083039C00103434440434D7E73046FCF787
:1044F8005DFC10B101232360D5E700232360D2E7D8
:10450800D0B170B50D4616460446FFF7CDFC431CE6
:104518005B009BB233802B7003236B70022307E090
:10452800EA5401345A1CD2B20021A9540233DBB236
:104538002278002AF4D170BD704708B513460222CC
:10454800C0F894228361C3610A460021FCF788FC05
:10455800002008BD08B513460A460021FCF780FC78
:10456800002008BD08B513460322C0F89422C0F8FD
:104578005831C0F85C310A460021FCF779FC00206C
:1045880008BD08B513460A460021FCF771FC002057
:1045980008BD08B50423C0F8943200231A4619460A
:1045A800FCF75EFC002008BD08B50523C0F894326E
:1045B80000231A461946FCF75BFC002008BD0000E2
:1045C8006D23038000487047B0000020002070472A
:1045D80010B5D0F8BC4204F5405292F80A2C012AD2
:1045E80001D0002010BD04F5405292F84C2C022A4C
:1045F800F7D1D0F8C022126904F5405494F80B0C96
:104608009047002384F80A3C84F84B3CE9E70020F3
:104618007047002070470020704700207047000056
:104628000A2303800048704720010020F8B5D0F81D
:10463800BC52012901D00020F8BD0446FCF7CDFB8F
:1046480086B2D4F8C0325B6905F54057B7F8080C54
:1046580028440122314604309847B7F8080C06442C
:10466800B6B2A7F8086CB6F5705F17D005F54053D9
:1046780093F8053C33B905F54053B3F8083CB3F556
:10468800F05F1ED005F54053B3F8082C2A44C02328
:10469800043201212046FCF7EBFBCCE70022A7F807
:1046A800082C97F8043C032BE0D1D4F8C0329B685F
:1046B80001224FF4F051281D9847002287F8042C56
:1046C800D4E705F54053012283F8052CDAE770B5E5
:1046D80005460E46D0F8BC4204F570540B3440220F
:1046E8000021204600F04EF9F28821462846FFF7BF
:1046F80024FF70BD38B5D0F8BC52CA8802B938BD9D
:104708000C4605F570510B31FFF72CFF05F54055A8
:10471800012385F80A3CA37985F84B3CA3881B0A3A
:1047280085F84C3CEBE7000030B583B00023ADF8CA
:104738000630D0F8BC320C7814F0600412D0202C6B
:1047480058D14B78012B05D0812B07D1FFF7BFFF3C
:10475800002452E0FFF7CEFF00244EE0FFF7CCFB29
:1047680003244AE04D780B2D40D8DFE805F00646D3
:104778003F3F3F3F153F3F3F212E90F89C32032B90
:1047880003D0FFF7B9FB032437E002220DF106013D
:10479800FFF7D3FE2C4630E04B881B0A212B2CD187
:1047A800CA88092A28BF09221549FFF7C6FE24E04E
:1047B80090F89C22032A03D0FFF79EFB03241CE0F9
:1047C80001221946FFF7B9FE17E090F89C52032D15
:1047D80008D18A78012A01D81A600EE0FFF78CFB0D
:1047E8002C460AE0FFF788FB032406E0FFF784FB6A
:1047F800032402E0FFF780FB0324204603B030BD0A
:10480800C200002010B504460121FCF709FB002373
:10481800A4F87831A4F87A31D4F8BC325BB1D4F872
:10482800C0325B6800209847D4F8BC0200F0A2F8B8
:104838000023C4F8BC32002010BD38B5044643F646
:10484800504000F08FF868B30546C4F8BC02237CDA
:104858006BBB0123A4F87A31C023012211462046FC
:10486800FCF7D3FA0123A4F8783100222A6005F571
:104878004053032183F8041CA3F8082CA3F8062C42
:1048880083F8052CD4F8C0321B6846214BF68030DB
:10489800984780B9C0232A1D01212046FCF7E8FA71
:1048A800002038BD0023C4F8BC320220F9E70123F8
:1048B800A4F87A31D0E70320F3E719B1C0F8C012A1
:1048C8000020704703207047DFF834D0002103E050
:1048D8000C4B5B58435004310B480C4B42189A421E
:1048E800F6D30B4A02E0002342F8043B094B9A42F4
:1048F800F9D3FFF765F900F011F8FBF76BFF704784
:1049080000000220D04B0008000000209001002089
:10491800900100209C0B0020FEE7000070B50D4DB3
:104928000D4C641BA4100026A64209D10B4D0C4C5B
:1049380000F002F9641BA4100026A64205D170BD40
:1049480055F8043B98470136EEE755F8043B98477D
:104958000136F2E7C84B0008C84B0008C84B0008EE
:10496800CC4B0008024B0146186800F05FB800BF46
:104978002C010020024B0146186800F00BB800BF5C
:104988002C01002002440346934200D1704703F8EB
:10499800011BF9E737B5002944D051F8043C0190D0
:1049A800002BA1F10404B8BFE41800F0A9F81E4ACE
:1049B8000198136833B96360146003B0BDE83040F0
:1049C80000F0A4B8A34208D9256861198B4201BF39
:1049D80019685B6849192160EDE71A465B680BB1F5
:1049E800A342FAD911685518A5420BD1246821446D
:1049F8005418A3421160E0D11C685B6853602144DD
:104A08001160DAE702D90C230360D6E7256861193B
:104A18008B4204BF19685B68636004BF4919216051
:104A28005460CAE703B030BD880B0020F8B5CD1C30
:104A380025F0030508350C2D38BF0C25002D06463A
:104A480001DBA94203D90C2333600020F8BD00F034
:104A580057F821490A6814469CB9204F3B6823B986
:104A68002146304600F03CF838602946304600F0D0
:104A780037F8431C23D10C233360304600F046F846
:104A8800E3E723685B1B17D40B2B03D923601C4473
:104A9800256004E06368A2420CBF0B605360304697
:104AA80000F034F804F10B00231D20F00700C21AAF
:104AB800CCD01B1AA350C9E722466468CCE7C41CB3
:104AC80024F00304A042E3D0211A304600F008F88D
:104AD8000130DDD1CFE700BF880B00208C0B002010
:104AE80038B5064D0023044608462B6000F016F83A
:104AF800431C02D12B6803B1236038BD900B002002
:104B0800014800F009B800BF940B0020014800F0EC
:104B180004B800BF940B002070477047044A054949
:104B28001368002B08BF0B461844106018467047DE
:104B3800980B0020A00B0020F8B500BFF8BC08BCFB
:104B48009E467047F8B500BFF8BC08BC9E46704743
:104B580053544D333220417564696F20436C61733F
:104B68007300000053544D6963726F656C6563741C
:104B7800726F6E6963730000415544494F20436F5B
:104B88006E66696700000000415544494F20496E30
:104B980074657266616365000006101600061016DB
:104BA80000000000000000000102030406070809D5
:084BB8000000000001020304EB
:084BC00038B6FF7F0100000080
:044BC800AD01000833
:044BCC008901000853
:104BD000850A0008910A0008550B0008310B0008EF
:104BE0001D0B0008710B0008950B00081201000254
:104BF000000000408304305700020102030100005E
:104C0000040309041A030000000000000000000073
:104C10000000000000000000000000000000000094
:104C2000B90B0008BD0B0008C10B0008C50B00083C
:104C3000C90B0008CD0B0008D10B000801000000D3
:104C4000100000000024F400434800080D4800084C
:104C50003147000817460008D9450008D545000827
:104C6000354600081B4600081F460008234600087A
:104C7000C9450008C9450008C9450008294600087B
:104C800009026D00020100C03209040000000101A8
:104C900000000924010001270001010C2402010188
:104CA00001000100000000092406020101010000CA
:104CB00009240303010300020009040100000102AA
:104CC00000000904010101010200000724010101A3
:104CD00001000B2402010202100180BB0009050142
:104CE00001C00001000007250100000000000000D5
:104CF0000A06000200000040010000003001002010
:104D000000000000000000000000000000000000A3
:104D10000000000000000000000000000000000093
:104D20000000000000000000000000000000000083
:104D30000000000000000000000000000000000073
:104D40000000000000000000000000000000000063
:104D50000000000000000000000000000000000053
:04000005080048D1D6
:00000001FF
